:03000000022000DB
:05100000C297C2983206
:10200000D297758920758921758DFD75985075A8B1
:1020100090D28ED297C2A0D2A1C290C291C292C2D7
:1020200093D2A0117BC2A030A1FD1159208D0D309B
:102030008D1411677461F599F5A080E5C293C29182
:10204000D292D29080ECC292C290D293D29180E28E
:10205000C293C291C292C29022758A47758CACD24B
:102060008C20A1FDC28C227F14758A00758C4CD205
:102070008C308DFDC28CC28DDFEF22758AF7758C96
:10208000FFD28C308DFDC28CC28D2211502099055B
:08209000E599C29832C29932B1
:00000001FF
