:10000000759000758000C2A0D2A17400D2A0117BAF
:10001000C2A030A1FD114B116480F1758920758D4E
:10002000FD759850D28EEE7F000F75F00A84C0F0F7
:10003000B400F6D005ED2430F5993099FDC299DF72
:10004000F27420F5993099FDC29922758901758A5B
:1000500047758CACD28C20A1FDC28CAE8C111BAE2E
:100060008A111B227589017F14758A00758C4CD208
:100070008C308DFDC28CC28DDFEF22758901758AAF
:10008000F7758CFFD28C308DFDC28CC28D227589A4
:1000900001758A66758CFCD28C308DFDC28CC28D48
:0100A000223D
:00000001FF
