:10000000759000758000C2A0D2A1D2A27400D2A0C7
:10001000118DC2A030A1FD114D117680F17589209E
:10002000758DFD759850D28EEE7F000F75F00A84A5
:10003000C0F0B400F6D005ED2430F5993099FDC23A
:1000400099DFF27420F5993099FDC29922758901E2
:10005000758A47758CACD28C20A10302006B208D71
:100060000280F5C2A211761176D2A2C28CAE8C119A
:100070001DAE8A111D227589017F14758A00758C49
:100080004CD28C308DFDC28CC28DDFEF2275890180
:10009000758AF7758CFFD28C308DFDC28CC28D2293
:1000A000758901758A66758CFCD28C308DFDC28C89
:1000B000C28D22C008C009C00AC00BC00CC00DC050
:1000C0000EC00FC082C083C0F0D2D37F007E007DFF
:1000D000007C0075F020C2D3C3E833F8E933F9EAB5
:1000E00033FAEB33FBD2D3EC33FCED33FDEE33FECE
:1000F000EF33FFECC39504F582ED9505F583EE949F
:1001000000F506EF9400F507B35008AF07AE06AD53
:1001100083AC82E833F8E933F9EA33FAEB33FBD501
:10012000F0B48F078E068D058C048B038A0289013B
:100130008800C2D3D0F0D083D082D00FD00ED00DA3
:0B014000D00CD00BD00AD009D0082250
:00000001FF
