:10000000759000758000C2A0D2A1D2A01160C2A0DC
:1000100030A1FD740011730420A1FAFE11221149D0
:1000200080E8758920758DFD759850D28EEE7F0021
:100030000F75F00A84C0F0B400F6D005ED2430F559
:10004000993099FDC299DFF2227589017F14758A72
:1000500000758C4CD28C308DFDC28CC28DDFEF22AE
:10006000758901758AF7758CFFD28C308DFDC28C35
:10007000C28D22758901758A66758CFCD28C308D93
:06008000FDC28CC28D22BE
:00000001FF
