:03000000020030CB
:030023000201B81F
:10003000C2A6C2A7C2A3D2A4C283C282C281C28006
:1000400074383153740F31537401315375892175EC
:100050008DFD759850D28ED2A7C2A511AC75A8900F
:1000600020A50DD2A33126C2A330A4FD11EE80F04D
:1000700075A890D2A5C330A5E0D2A33126C2A33083
:10008000A4FD11EE118880EDC280C282D281D2839C
:1000900022C281C283D280D28222C280C282C28125
:1000A000D28322D281C283C280C28222C280C28213
:1000B000C281C28322D2A630A50C11913136119A89
:1000C00031363136C2A622C006C00774013153EE64
:1000D0007F000F75F00A84C0F0B400F6D005ED245F
:1000E00030F912014EDFF5317BD007D00622758A38
:1000F00047758CACC28DD28C20A4FDC28CC28D31D0
:100100000F74C2C3958C5480C2A6700211B522C36D
:10011000E58C94ACF9C3E58A9447F87B007A3A31D0
:1001200080EAFE11C722758AF7758CFFD28C308D5C
:10013000FDC28CC28D22C0077F14758A00758C4C5D
:10014000D28C308DFDC28CC28DDFEFD007223160A2
:10015000317222F590C2A0C2A1D2A23172C2A222F3
:10016000F590D2A0C2A1D2A23172C2A2227E02DE3A
:10017000FE22780A79FFD9FED8FA227FFADFFE2222
:10018000C37C007D0075F00005F0EA33FAEB33FB29
:1001900050F6EB13FBEA13FAC389078806E89AF8CE
:1001A000E99BF95004A907A806B3EC33FCED33FD35
:1001B000D5F0DFAB05AA042220994E20A546E5998B
:1001C000C298FCC39466601EECC39462601DECC3CD
:1001D0009472601CECC3946C601BECC39461601F50
:1001E000ECC3947360141188020209119102020990
:1001F000119A02020911A302020911AC020209D2EA
:0A020000A5020209C2A5C29832321D
:00000001FF
