:03000000020030CB
:030023000201DAFD
:10003000C2A6C2A7C2A5C2A3D2A4C283C282C281E1
:10004000C28074383175740F3175740131757589DA
:1000500021758DFD759850D28ED2A7C2A511B075AD
:10006000A89020A50FD2A33130C2A330A4FD11F86F
:10007000314080EE75A890D2A5C330A5DED2A33161
:1000800030C2A330A4FD11F8118C80EDC280C28271
:10009000D281D28322C281C283D280D28222C28004
:1000A000C282C281D28322D281C283C280C2822212
:1000B000C280C282C281C28322D2A630A50C119511
:1000C0003158119E31583158C2A622C006C007745B
:1000D000013175EE7F000F75F00A84C0F0B400F6B0
:1000E00075F00AFB84C0030FD005ED2430F912012E
:1000F00070DFF5D007D00622758A47758CACC28DAB
:10010000D28C20A4FDC28CC28D311974B1C3958CE0
:100110005480C2A6700211B922C3E58C94ACF9C315
:10012000E58A9447F87B007A3A31A2EAFE11CB22A5
:10013000758AF7758CFFD28C308DFDC28CC28D22F2
:10014000C0077F0A758A00758C4CD28C308DFDC239
:100150008CC28DDFEFD00722C0077F14758A00752F
:100160008C4CD28C308DFDC28CC28DDFEFD007223B
:100170003182319422F590C2A0C2A1D2A23194C2A0
:10018000A222F590D2A0C2A1D2A23194C2A2227E14
:1001900002DEFE22780A79FFD9FED8FA227FFADF42
:1001A000FE22C37C007D0075F00005F0EA33FAEB17
:1001B00033FB50F6EB13FBEA13FAC389078806E812
:1001C0009AF8E99BF95004A907A806B3EC33FCEDB3
:1001D00033FDD5F0DFAB05AA042220994E20A546B9
:1001E000E599C298FCC39466601EECC39462601DDE
:1001F000ECC39472601CECC3946C601BECC3946100
:10020000601FECC394736014118C02022B119502D1
:10021000022B119E02022B11A702022B11B0020227
:0C0220002BD2A502022BC2A5C2983232DC
:00000001FF
