:03000000020030CB
:030023000201E7F0
:10003000C2A6C2A7C2A3D2A4C283C282C281C28006
:1000400074383182740F318274013182758921755F
:100050008DFD759850D28ED2A7C2A511E275A880E9
:100060003098FDE599C298FCC39466601EECC39479
:1000700062601DECC39472601CECC3946C601BEC5A
:10008000C394616021ECC39473601411BE0200A498
:1000900011C70200A411D00200A411D90200A411BA
:1000A000E20200A480BA75A890D2A5C330A5AAD256
:1000B000A33155C2A330A4FD311F11BE80EDC28013
:1000C000C282D281D28322C281C283D280D28222D2
:1000D000C280C282C281D28322D281C283C280C244
:1000E0008222C280C282C281C28322D2A611C731BB
:1000F0006511D031653165C2A622C006C007740102
:100100003182EE7F000F75F00A84C0F0B400F6D0A3
:1001100005ED2430F912017DDFF5D007D0062275F8
:100120008A47758CACC28DD28C20A4FDC28CC28D46
:10013000313E74C2C3958C5480700211EB22C3E52A
:100140008C94ACF9C3E58A9447F87B007A3A31AFD6
:10015000EAFE11FA22758AF7758CFFD28C308DFD7C
:10016000C28CC28D22C0077F14758A00758C4CD258
:100170008C308DFDC28CC28DDFEFD00722318F31E4
:10018000A122F590C2A0C2A1D2A231A1C2A222F5A1
:1001900090D2A0C2A1D2A231A1C2A2227E02DEFED2
:1001A00022780A79FFD9FED8FA227FFADFFE22C32D
:1001B0007C007D0075F00005F0EA33FAEB33FB506C
:1001C000F6EB13FBEA13FAC389078806E89AF8E905
:1001D0009BF95004A907A806B3EC33FCED33FDD519
:1001E000F0DFAB05AA0422209905C2A5C2983232DD
:00000001FF
