:03000000020030CB
:0300230002014295
:10003000758000C294C295D296C2A0D2A1C290C2CD
:1000400091C292C293758921758DFD759850D28E9B
:1000500075A880C29711E43098FDE599C298FCC359
:100060009466601EECC39462601DECC39472601CC5
:10007000ECC3946C601BECC394616021ECC394737B
:10008000601411C002009B11C902009B11D2020032
:100090009B11DB02009B11E402009B80BA75A890C3
:1000A000D297C33097ADC295D2A0311AC2A030A169
:1000B000FD11FC208D0611EDC28D80E611C080E29D
:1000C000C293C291D292D29022C292C290D293D2C3
:1000D0009122C293C291C292D29022C292C290D275
:1000E00093C29122C293C291C292C29022D2951120
:1000F000C9312A11D2312A312AC29522758A47750F
:100100008CACC28DD28C20A1FD20A1030201143041
:100110008DF73117C28C22C28C22758AF7758CFF3D
:10012000D28C308DFDC28CC28D22C0077F14758A9F
:1001300000758C4CD28C308DFDC28CC28DDFEFD01F
:0B0140000722209905C297C2983232B6
:00000001FF
