:03000000020030CB
:030023000201D700
:10003000C2A6C2A7C2A3D2A4C283C282C281C28006
:100040007438317C740F317C7401317C7589217571
:100050008DFD759850D28ED2A7C2A511E475A880E7
:100060003098FDE599C298FCC39466601EECC39479
:1000700062601DECC39472601CECC3946C601BEC5A
:10008000C394616021ECC39473601411C00200A496
:1000900011C90200A411D20200A411DB0200A411B4
:1000A000E40200A480BA75A890D2A5C330A5AAC264
:1000B000A6D2A3314FC2A330A4FD311911C080EBE9
:1000C000C280C282D281D28322C281C283D280D234
:1000D0008222C280C282C281D28322D281C283C2E2
:1000E00080C28222C280C282C281C28322D2A61171
:1000F000C9315F11D2315F315FC2A6227401317CF8
:10010000EE7F000F75F00A84C0F0B400F6D005ED64
:100110002430F9120177DFF522758A47758CACC25D
:100120008DD28C20A4FDC28CC28D74C1C3958C5419
:1001300080700211EDC3E58C94ACF9C3E58A944755
:10014000F87B007A3A319FEAFE11FC22C28C2275BC
:100150008AF7758CFFD28C308DFDC28CC28D22C087
:10016000077F14758A00758C4CD28C308DFDC28C43
:10017000C28DDFEFD007223189319622F590C2A0DF
:10018000C2A1D2A23196C2A222F590D2A0C2A1D21F
:10019000A23196C2A222780A79FFD9FED8FA22C3E8
:1001A0007C007D0075F00005F0EA33FAEB33FB507C
:1001B000F6EB13FBEA13FAC389078806E89AF8E915
:1001C0009BF95004A907A806B3EC33FCED33FDD529
:1001D000F0DFAB05AA0422209905C2A5C2983232ED
:00000001FF
