:03000000020030CB
:03002300020137A0
:10003000758000C294C295D296C2A0D2A1C290C2CD
:1000400091C292C293758921758DFD759850D28E9B
:10005000C29711E475A8803098FDE599C298FCC359
:100060009466601EECC39462601DECC39472601CC5
:10007000ECC3946C601BECC394616021ECC394737B
:10008000601411C002009B11C902009B11D2020032
:100090009B11DB02009B11E402009B80BA75A890C3
:1000A000D297C33097AAC295D2A0310FC2A030A177
:1000B000FD11FC208D0611EDC28D80E611C080E29D
:1000C000C293C291D292D29022C292C290D293D2C3
:1000D0009122C293C291C292D29022D292C290C275
:1000E00093C29122C293C291C292C29022D2951120
:1000F000C9311F11D2311F311FC29522758A477530
:100100008CACC28DD28C20A1FDC28C22C28C2275F7
:100110008AF7758CFFD28C308DFDC28CC28D22C0C7
:10012000077F14758A00758C4CD28C308DFDC28C83
:10013000C28DDFEFD00722209905C297C2983232D4
:00000001FF
