:03000000020030CB
:03002300020101D6
:10003000C2A0D2A1C290C291C292C2937589217509
:100040008DFD759850D28E75A880C29711D73098C3
:10005000FDE599C298FCC39466601EECC39462608F
:100060001DECC39472601CECC3946C601BECC394D5
:10007000616021ECC39473601411B302009211BC4F
:1000800002009211C502009211CE02009211D70215
:10009000009280BA75A890D297C33097ADD2A011C4
:1000A000F1C2A030A1FD11E3208D0411E080EA111E
:1000B000B380E6C293C291D292D29022C292C290F1
:1000C000D293D29122C293C291C292D29022C29272
:1000D000C290D293C29122C293C291C292C2902284
:1000E00011BC22758A47758CACD28C20A1FDC28CC4
:1000F00022758AF7758CFFD28C308DFDC28CC28D33
:0A01000022209905C297C2983232FE
:00000001FF
