:03000000020030CB
:0300230002015A7D
:10003000758000C294C295D296C2A0D2A1C290C2CD
:1000400091C292C293758921758DFD759850D28E9B
:10005000C29711DB75A8803098FDE599C298FCC362
:100060009466601EECC39462601DECC39472601CC5
:10007000ECC3946C601BECC394616021ECC394737B
:10008000601411B702009B11C002009B11C902004D
:100090009B11D202009B11DB02009B80BA75A890D5
:1000A000D297C33097AAC295D2A03132C2A030A154
:1000B000FD310911B780EBC293C291D292D2902246
:1000C000C292C290D293D29122C293C291C292D2D2
:1000D0009022D292C290C293C29122C293C291C284
:1000E00092C29022D29511C0314211C9314231429F
:1000F000C295227401EE7F000F75F00A84C0F0B43F
:1001000000F6D005ED2430F922758A47758CACC213
:100110008DD28C20A1FD74C1C3958C5480700B745A
:1001200035C3958A5480700211E4C28CC28D22C2FC
:100130008C22758AF7758CFFD28C308DFDC28CC2F3
:100140008D22C0077F14758A00758C4CD28C308D3F
:10015000FDC28CC28DDFEFD00722209905C297C265
:0C016000983232780A79FFD9FED8FA22D2
:00000001FF
