:03000000020100FA
:03000B0002019A55
:10010000759000758000C2A0D2A1D2A2740075A81B
:1001100082C290D2A03181C2A030A1FD315080F1C5
:10012000758920758DFD759850D28EEE7F000F7504
:10013000F00A84C0F0B400F6D005ED2430F5993013
:1001400099FDC299DFF27420F5993099FDC2992288
:10015000758901758A47758CACD28C20A103020188
:100160006A208D0280F5C2A2D2A2C28C7B007A00E6
:10017000A98CA88A7D007C3A319DE9FEE8FE3120F9
:10018000227E02DEFE2222758901758A47758CACBB
:10019000D28C308DFDC28CC28D22D29032C008C06C
:1001A00009C00AC00BC00CC00DC00EC00FC082C079
:1001B00083C0F0D2D37F007E007D007C0075F020EC
:1001C000C2D3C3E833F8E933F9EA33FAEB33FBD2AD
:1001D000D3EC33FCED33FDEE33FEEF33FFECC39590
:1001E00004F582ED9505F583EE9400F506EF940095
:1001F000F507B35008AF07AE06AD83AC82E833F81D
:10020000E933F9EA33FAEB33FBD5F0B48F078E0606
:100210008D058C048B038A0289018800C2D3D0F03B
:10022000D083D082D00FD00ED00DD00CD00BD00AFE
:05023000D009D00822F6
:00000001FF
